:0200000480106A
:1000000000D01FE5000000FA0000108080B500AFAE
:1000100000F03CF800F013F84FF44043C0F20A231C
:1000200000221A60322000F058E84FF44043C0F23A
:100030000A2308221A60322000F04EE8ECE780B470
:1000400000AF44F26C03C0F20C234FF0FF321A6091
:100050001423C0F2292305221A605823C0F2292351
:100060004FF63802C0F201021A604CF20403C0F2EB
:100070000A2308221A604FF44043C0F20A230022E8
:100080001A6000BFBD465DF8047B704780B483B042
:1000900000AF40F2E003C8F210037B6040F20003BF
:1000A000C0F290033B6007E03B681A1D3A607A6833
:1000B000111D796012681A603A6840F23803C0F284
:1000C00090039A42F0D300BF0C37BD465DF8047B25
:1000D000704700000000000004F01FE501009000E0
:1000E00080B485B000AF78607A6813461B059B1A10
:1000F000FB600023BB600023BB6003E000BFBB6864
:100100000133BB60BA68FB689A42F7D300BF14376B
:08011000BD465DF8047B704759
:040000058010000067
:00000001FF
